:030000000208B83B
:0C08B800787FE4F6D8FD75813A0208FF55
:100BF1007FBFDFEFF7FBFDFE8040201008040201FC
:100B6500140E00000000000000000000000000005E
:100B7500000000000000142200000000000000003A
:0C0B850000000000000000000000000064
:0C0C0100E4F50EF522750A01750D0222C3
:0A0BB800900BF193F5807F147E008E
:0B0BC200EF1FAC0670011E4C70F62205
:100B9200C2B6C2B5E4FEEFC4131313540124FF928C
:100BA200B4EF25E0FFD2B60000C2B60EBE08E7D20F
:050BB200B50000C2B512
:010BB700221B
:100A1C00E50A14FFEFD39400401B740D2FF8E6FE8B
:100A2C00740E2FF8A60674212FF8E6FE74222FF808
:100A3C00A6061F80DFE50D24FE600D14600D14600A
:100A4C000D2403700B152222052222150E22050EF1
:010A5C002277
:1008000020B12D75A0FE7FE87E03120BC220B11D22
:10081000E50DB404047F0180027F00E50DB40304FC
:100820007E0180027E00EE4F6003750D0130B1FD48
:1008300020B02A7FE87E03120BC220B01DE50DB464
:1008400004047F0180027F00E50DB403047E018073
:10085000027E00EE4F6003750D0230B0FD20B22A1B
:100860007F647E00120BC220B21DE50DB402047F2E
:100870000180027F00E50DB401047E0180027E004C
:10088000EE4F6003750D0330B2FD20B32A7FE87E82
:1008900003120BC220B31DE50DB402047F018002D8
:1008A0007F00E50DB401047E0180027E00EE4F6002
:0808B00003750D0430B3FD22B5
:100A5D001209CF7C007D081209448D0B1209CF7C41
:100A6D00007D081209448D0CE4F53AE53AC3950A68
:100A7D005019740E253AF8E6B50B0C7422253AF888
:0B0A8D00E6B50C03120A5D053A80E09C
:010A9800223B
:100B3700E50E650B7027E522650C7021120A5D74BE
:100B47000D250AF8E6FF740E250AF8A60774212575
:0E0B57000AF8E6FF7422250AF8A607050A220E
:100A9900E4FDEDC3950A502D74222DF8E6900BF96B
:100AA90093FF120B92740E2DF8E6120BB87580FFA6
:100AB900E50C900BF993FF120B92E50B120BB8752D
:050AC90080FF0D80CD4F
:010ACE002205
:100ACF00E50ED394075006E52294074007E4FF1282
:100ADF000B9280FE7F04EFC3950A5018740E2FF807
:100AEF00E6B50E0D74222FF8E6B522057580FF804E
:040AFF00FE0F80E284
:010B030022CF
:100BE100438901758CD8758AF0D2A9D2AFD28C22F3
:100BCD00120BE1120C01120A99120ACF120B3712F5
:040BDD00080080F29A
:03000B00020B04E1
:0D0B0400C0E0C0D075D000C000C006C00722
:100B1100758CD8758AF00509E509700205086432FB
:0B0B210045087007F508F509120A1CD2
:0B0B2C00D007D006D000D0D0D0E032BF
:1008C400020BCDE493A3F8E493A34003F68001F272
:1008D40008DFF48029E493A3F85407240CC8C33335
:1008E400C4540F4420C8834004F456800146F6DF04
:1008F400E4800B0102040810204080900B65E47E24
:10090400019360BCA3FF543F30E509541FFEE493F8
:10091400A360010ECF54C025E060A840B8E493A3BF
:10092400FAE493A3F8E493A3C8C582C8CAC583CAEA
:10093400F0A3C8C582C8CAC583CADFE9DEE780BEA2
:010B91000063
:10094400C2D5EC30E709B2D5E4C39DFDE49CFCEECE
:1009540030E715B2D5E4C39FFFE49EFE12097AC3C3
:10096400E49DFDE49CFC800312097A30D507C3E4BE
:060974009FFFE49EFE223D
:1009CF00AC36AD37AE38AF397810EC4D4E4F7004B2
:1009DF007CA57DA5C3EC13FCED13FDEE13FEEF1309
:1009EF00FF5010EC64CCFCED644CFDEE644EFEEF5A
:1009FF0064CEFFD8DF8C368D378E388F39EE547F2B
:0D0A0F00FE228E368F3774A5F538F539229A
:10097A00BC000BBE0029EF8DF084FFADF022E4CC61
:10098A00F875F008EF2FFFEE33FEEC33FCEE9DEC2A
:10099A00984005FCEE9DFE0FD5F0E9E4CEFD22ED70
:1009AA00F8F5F0EE8420D21CFEADF075F008EF2FBA
:1009BA00FFED33FD4007985006D5F0F222C398FDAB
:0509CA000FD5F0EA2248
:00000001FF
